{
  "_format": "hh-sol-artifact-1",
  "contractName": "TipJar",
  "sourceName": "contracts/TipJar.sol",
  "abi": [
    {
      "inputs": [],
      "stateMutability": "nonpayable",
      "type": "constructor"
    },
    {
      "anonymous": false,
      "inputs": [
        {
          "indexed": true,
          "internalType": "address",
          "name": "from",
          "type": "address"
        },
        {
          "indexed": false,
          "internalType": "uint256",
          "name": "amount",
          "type": "uint256"
        },
        {
          "indexed": false,
          "internalType": "string",
          "name": "message",
          "type": "string"
        },
        {
          "indexed": false,
          "internalType": "uint256",
          "name": "timestamp",
          "type": "uint256"
        }
      ],
      "name": "NewTip",
      "type": "event"
    },
    {
      "inputs": [],
      "name": "getAllTips",
      "outputs": [
        {
          "components": [
            {
              "internalType": "address",
              "name": "tipper",
              "type": "address"
            },
            {
              "internalType": "string",
              "name": "message",
              "type": "string"
            },
            {
              "internalType": "uint256",
              "name": "timestamp",
              "type": "uint256"
            },
            {
              "internalType": "uint256",
              "name": "amount",
              "type": "uint256"
            }
          ],
          "internalType": "struct TipJar.Tip[]",
          "name": "",
          "type": "tuple[]"
        }
      ],
      "stateMutability": "view",
      "type": "function"
    },
    {
      "inputs": [],
      "name": "getTipCount",
      "outputs": [
        {
          "internalType": "uint256",
          "name": "",
          "type": "uint256"
        }
      ],
      "stateMutability": "view",
      "type": "function"
    },
    {
      "inputs": [],
      "name": "owner",
      "outputs": [
        {
          "internalType": "address",
          "name": "",
          "type": "address"
        }
      ],
      "stateMutability": "view",
      "type": "function"
    },
    {
      "inputs": [
        {
          "internalType": "string",
          "name": "_message",
          "type": "string"
        }
      ],
      "name": "tip",
      "outputs": [],
      "stateMutability": "payable",
      "type": "function"
    },
    {
      "inputs": [
        {
          "internalType": "uint256",
          "name": "",
          "type": "uint256"
        }
      ],
      "name": "tips",
      "outputs": [
        {
          "internalType": "address",
          "name": "tipper",
          "type": "address"
        },
        {
          "internalType": "string",
          "name": "message",
          "type": "string"
        },
        {
          "internalType": "uint256",
          "name": "timestamp",
          "type": "uint256"
        },
        {
          "internalType": "uint256",
          "name": "amount",
          "type": "uint256"
        }
      ],
      "stateMutability": "view",
      "type": "function"
    },
    {
      "inputs": [],
      "name": "withdraw",
      "outputs": [],
      "stateMutability": "nonpayable",
      "type": "function"
    }
  ],
  "bytecode": "0x6080604052348015600f57600080fd5b50336000806101000a81548173ffffffffffffffffffffffffffffffffffffffff021916908373ffffffffffffffffffffffffffffffffffffffff160217905550610f5c8061005f6000396000f3fe6080604052600436106100555760003560e01c8063399ddbbd1461005a5780633ccfd60b146100855780637dc1a64f1461009c5780638da5cb5b146100c7578063a5c68c59146100f2578063cb56393c14610132575b600080fd5b34801561006657600080fd5b5061006f61014e565b60405161007c919061083b565b60405180910390f35b34801561009157600080fd5b5061009a6102a9565b005b3480156100a857600080fd5b506100b16103a0565b6040516100be919061086c565b60405180910390f35b3480156100d357600080fd5b506100dc6103ad565b6040516100e99190610896565b60405180910390f35b3480156100fe57600080fd5b50610119600480360381019061011491906108f1565b6103d1565b6040516101299493929190610968565b60405180910390f35b61014c60048036038101906101479190610ae9565b6104b9565b005b60606001805480602002602001604051908101604052809291908181526020016000905b828210156102a057838290600052602060002090600402016040518060800160405290816000820160009054906101000a900473ffffffffffffffffffffffffffffffffffffffff1673ffffffffffffffffffffffffffffffffffffffff1673ffffffffffffffffffffffffffffffffffffffff1681526020016001820180546101fb90610b61565b80601f016020809104026020016040519081016040528092919081815260200182805461022790610b61565b80156102745780601f1061024957610100808354040283529160200191610274565b820191906000526020600020905b81548152906001019060200180831161025757829003601f168201915b505050505081526020016002820154815260200160038201548152505081526020019060010190610172565b50505050905090565b60008054906101000a900473ffffffffffffffffffffffffffffffffffffffff1673ffffffffffffffffffffffffffffffffffffffff163373ffffffffffffffffffffffffffffffffffffffff1614610337576040517f08c379a000000000000000000000000000000000000000000000000000000000815260040161032e90610bde565b60405180910390fd5b60008054906101000a900473ffffffffffffffffffffffffffffffffffffffff1673ffffffffffffffffffffffffffffffffffffffff166108fc479081150290604051600060405180830381858888f1935050505015801561039d573d6000803e3d6000fd5b50565b6000600180549050905090565b60008054906101000a900473ffffffffffffffffffffffffffffffffffffffff1681565b600181815481106103e157600080fd5b90600052602060002090600402016000915090508060000160009054906101000a900473ffffffffffffffffffffffffffffffffffffffff169080600101805461042a90610b61565b80601f016020809104026020016040519081016040528092919081815260200182805461045690610b61565b80156104a35780601f10610478576101008083540402835291602001916104a3565b820191906000526020600020905b81548152906001019060200180831161048657829003601f168201915b5050505050908060020154908060030154905084565b600034116104fc576040517f08c379a00000000000000000000000000000000000000000000000000000000081526004016104f390610c4a565b60405180910390fd5b600060405180608001604052803373ffffffffffffffffffffffffffffffffffffffff168152602001838152602001428152602001348152509050600181908060018154018082558091505060019003906000526020600020906004020160009091909190915060008201518160000160006101000a81548173ffffffffffffffffffffffffffffffffffffffff021916908373ffffffffffffffffffffffffffffffffffffffff16021790555060208201518160010190816105bf9190610e16565b50604082015181600201556060820151816003015550503373ffffffffffffffffffffffffffffffffffffffff167f09ee48280b229b6d69b3432f9e7b41158021d466d08626b8e2cfd35934f45b8c34844260405161062093929190610ee8565b60405180910390a25050565b600081519050919050565b600082825260208201905092915050565b6000819050602082019050919050565b600073ffffffffffffffffffffffffffffffffffffffff82169050919050565b600061068382610658565b9050919050565b61069381610678565b82525050565b600081519050919050565b600082825260208201905092915050565b60005b838110156106d35780820151818401526020810190506106b8565b60008484015250505050565b6000601f19601f8301169050919050565b60006106fb82610699565b61070581856106a4565b93506107158185602086016106b5565b61071e816106df565b840191505092915050565b6000819050919050565b61073c81610729565b82525050565b600060808301600083015161075a600086018261068a565b506020830151848203602086015261077282826106f0565b91505060408301516107876040860182610733565b50606083015161079a6060860182610733565b508091505092915050565b60006107b18383610742565b905092915050565b6000602082019050919050565b60006107d18261062c565b6107db8185610637565b9350836020820285016107ed85610648565b8060005b85811015610829578484038952815161080a85826107a5565b9450610815836107b9565b925060208a019950506001810190506107f1565b50829750879550505050505092915050565b6000602082019050818103600083015261085581846107c6565b905092915050565b61086681610729565b82525050565b6000602082019050610881600083018461085d565b92915050565b61089081610678565b82525050565b60006020820190506108ab6000830184610887565b92915050565b6000604051905090565b600080fd5b600080fd5b6108ce81610729565b81146108d957600080fd5b50565b6000813590506108eb816108c5565b92915050565b600060208284031215610907576109066108bb565b5b6000610915848285016108dc565b91505092915050565b600082825260208201905092915050565b600061093a82610699565b610944818561091e565b93506109548185602086016106b5565b61095d816106df565b840191505092915050565b600060808201905061097d6000830187610887565b818103602083015261098f818661092f565b905061099e604083018561085d565b6109ab606083018461085d565b95945050505050565b600080fd5b600080fd5b7f4e487b7100000000000000000000000000000000000000000000000000000000600052604160045260246000fd5b6109f6826106df565b810181811067ffffffffffffffff82111715610a1557610a146109be565b5b80604052505050565b6000610a286108b1565b9050610a3482826109ed565b919050565b600067ffffffffffffffff821115610a5457610a536109be565b5b610a5d826106df565b9050602081019050919050565b82818337600083830152505050565b6000610a8c610a8784610a39565b610a1e565b905082815260208101848484011115610aa857610aa76109b9565b5b610ab3848285610a6a565b509392505050565b600082601f830112610ad057610acf6109b4565b5b8135610ae0848260208601610a79565b91505092915050565b600060208284031215610aff57610afe6108bb565b5b600082013567ffffffffffffffff811115610b1d57610b1c6108c0565b5b610b2984828501610abb565b91505092915050565b7f4e487b7100000000000000000000000000000000000000000000000000000000600052602260045260246000fd5b60006002820490506001821680610b7957607f821691505b602082108103610b8c57610b8b610b32565b5b50919050565b7f536f6c6f20656c206f776e657220707565646520726574697261720000000000600082015250565b6000610bc8601b8361091e565b9150610bd382610b92565b602082019050919050565b60006020820190508181036000830152610bf781610bbb565b9050919050565b7f456c206d6f6e746f206465626520736572206d61796f72207175652030000000600082015250565b6000610c34601d8361091e565b9150610c3f82610bfe565b602082019050919050565b60006020820190508181036000830152610c6381610c27565b9050919050565b60008190508160005260206000209050919050565b60006020601f8301049050919050565b600082821b905092915050565b600060088302610ccc7fffffffffffffffffffffffffffffffffffffffffffffffffffffffffffffffff82610c8f565b610cd68683610c8f565b95508019841693508086168417925050509392505050565b6000819050919050565b6000610d13610d0e610d0984610729565b610cee565b610729565b9050919050565b6000819050919050565b610d2d83610cf8565b610d41610d3982610d1a565b848454610c9c565b825550505050565b600090565b610d56610d49565b610d61818484610d24565b505050565b5b81811015610d8557610d7a600082610d4e565b600181019050610d67565b5050565b601f821115610dca57610d9b81610c6a565b610da484610c7f565b81016020851015610db3578190505b610dc7610dbf85610c7f565b830182610d66565b50505b505050565b600082821c905092915050565b6000610ded60001984600802610dcf565b1980831691505092915050565b6000610e068383610ddc565b9150826002028217905092915050565b610e1f82610699565b67ffffffffffffffff811115610e3857610e376109be565b5b610e428254610b61565b610e4d828285610d89565b600060209050601f831160018114610e805760008415610e6e578287015190505b610e788582610dfa565b865550610ee0565b601f198416610e8e86610c6a565b60005b82811015610eb657848901518255600182019150602085019450602081019050610e91565b86831015610ed35784890151610ecf601f891682610ddc565b8355505b6001600288020188555050505b505050505050565b6000606082019050610efd600083018661085d565b8181036020830152610f0f818561092f565b9050610f1e604083018461085d565b94935050505056fea26469706673582212209311f1cca158ecee9da6ea48fdf7e4b5df1121a46b700e5a560ae384b96241c264736f6c634300081c0033",
  "linkReferences": {},
  "deployedLinkReferences": {}
}