{
  "_format": "hh-sol-artifact-1",
  "contractName": "TipJar",
  "sourceName": "contracts/TipJar.sol",
  "abi": [
    {
      "inputs": [],
      "stateMutability": "nonpayable",
      "type": "constructor"
    },
    {
      "anonymous": false,
      "inputs": [
        {
          "indexed": true,
          "internalType": "address",
          "name": "from",
          "type": "address"
        },
        {
          "indexed": false,
          "internalType": "uint256",
          "name": "amount",
          "type": "uint256"
        },
        {
          "indexed": false,
          "internalType": "string",
          "name": "message",
          "type": "string"
        },
        {
          "indexed": false,
          "internalType": "uint256",
          "name": "timestamp",
          "type": "uint256"
        }
      ],
      "name": "NewTip",
      "type": "event"
    },
    {
      "inputs": [],
      "name": "getAllTips",
      "outputs": [
        {
          "components": [
            {
              "internalType": "address",
              "name": "tipper",
              "type": "address"
            },
            {
              "internalType": "string",
              "name": "message",
              "type": "string"
            },
            {
              "internalType": "uint256",
              "name": "timestamp",
              "type": "uint256"
            },
            {
              "internalType": "uint256",
              "name": "amount",
              "type": "uint256"
            }
          ],
          "internalType": "struct TipJar.Tip[]",
          "name": "",
          "type": "tuple[]"
        }
      ],
      "stateMutability": "view",
      "type": "function"
    },
    {
      "inputs": [],
      "name": "getTipCount",
      "outputs": [
        {
          "internalType": "uint256",
          "name": "",
          "type": "uint256"
        }
      ],
      "stateMutability": "view",
      "type": "function"
    },
    {
      "inputs": [
        {
          "internalType": "address",
          "name": "_tipper",
          "type": "address"
        }
      ],
      "name": "getTipsByAddress",
      "outputs": [
        {
          "components": [
            {
              "internalType": "address",
              "name": "tipper",
              "type": "address"
            },
            {
              "internalType": "string",
              "name": "message",
              "type": "string"
            },
            {
              "internalType": "uint256",
              "name": "timestamp",
              "type": "uint256"
            },
            {
              "internalType": "uint256",
              "name": "amount",
              "type": "uint256"
            }
          ],
          "internalType": "struct TipJar.Tip[]",
          "name": "",
          "type": "tuple[]"
        }
      ],
      "stateMutability": "view",
      "type": "function"
    },
    {
      "inputs": [],
      "name": "owner",
      "outputs": [
        {
          "internalType": "address",
          "name": "",
          "type": "address"
        }
      ],
      "stateMutability": "view",
      "type": "function"
    },
    {
      "inputs": [
        {
          "internalType": "string",
          "name": "_message",
          "type": "string"
        }
      ],
      "name": "tip",
      "outputs": [],
      "stateMutability": "payable",
      "type": "function"
    },
    {
      "inputs": [
        {
          "internalType": "uint256",
          "name": "",
          "type": "uint256"
        }
      ],
      "name": "tips",
      "outputs": [
        {
          "internalType": "address",
          "name": "tipper",
          "type": "address"
        },
        {
          "internalType": "string",
          "name": "message",
          "type": "string"
        },
        {
          "internalType": "uint256",
          "name": "timestamp",
          "type": "uint256"
        },
        {
          "internalType": "uint256",
          "name": "amount",
          "type": "uint256"
        }
      ],
      "stateMutability": "view",
      "type": "function"
    },
    {
      "inputs": [
        {
          "internalType": "address",
          "name": "",
          "type": "address"
        },
        {
          "internalType": "uint256",
          "name": "",
          "type": "uint256"
        }
      ],
      "name": "tipsByAddress",
      "outputs": [
        {
          "internalType": "address",
          "name": "tipper",
          "type": "address"
        },
        {
          "internalType": "string",
          "name": "message",
          "type": "string"
        },
        {
          "internalType": "uint256",
          "name": "timestamp",
          "type": "uint256"
        },
        {
          "internalType": "uint256",
          "name": "amount",
          "type": "uint256"
        }
      ],
      "stateMutability": "view",
      "type": "function"
    },
    {
      "inputs": [],
      "name": "withdraw",
      "outputs": [],
      "stateMutability": "nonpayable",
      "type": "function"
    }
  ],
  "bytecode": "0x6080604052348015600f57600080fd5b50336000806101000a81548173ffffffffffffffffffffffffffffffffffffffff021916908373ffffffffffffffffffffffffffffffffffffffff1602179055506114038061005f6000396000f3fe60806040526004361061007b5760003560e01c80637dc1a64f1161004e5780637dc1a64f1461013f5780638da5cb5b1461016a578063a5c68c5914610195578063cb56393c146101d55761007b565b8063399ddbbd146100805780633ccfd60b146100ab57806345d60823146100c25780636657d3eb146100ff575b600080fd5b34801561008c57600080fd5b506100956101f1565b6040516100a29190610c49565b60405180910390f35b3480156100b757600080fd5b506100c061034c565b005b3480156100ce57600080fd5b506100e960048036038101906100e49190610cab565b610443565b6040516100f69190610c49565b60405180910390f35b34801561010b57600080fd5b5061012660048036038101906101219190610d04565b6105dd565b6040516101369493929190610dac565b60405180910390f35b34801561014b57600080fd5b506101546106d2565b6040516101619190610df8565b60405180910390f35b34801561017657600080fd5b5061017f6106df565b60405161018c9190610e13565b60405180910390f35b3480156101a157600080fd5b506101bc60048036038101906101b79190610e2e565b610703565b6040516101cc9493929190610dac565b60405180910390f35b6101ef60048036038101906101ea9190610f90565b6107eb565b005b60606001805480602002602001604051908101604052809291908181526020016000905b8282101561034357838290600052602060002090600402016040518060800160405290816000820160009054906101000a900473ffffffffffffffffffffffffffffffffffffffff1673ffffffffffffffffffffffffffffffffffffffff1673ffffffffffffffffffffffffffffffffffffffff16815260200160018201805461029e90611008565b80601f01602080910402602001604051908101604052809291908181526020018280546102ca90611008565b80156103175780601f106102ec57610100808354040283529160200191610317565b820191906000526020600020905b8154815290600101906020018083116102fa57829003601f168201915b505050505081526020016002820154815260200160038201548152505081526020019060010190610215565b50505050905090565b60008054906101000a900473ffffffffffffffffffffffffffffffffffffffff1673ffffffffffffffffffffffffffffffffffffffff163373ffffffffffffffffffffffffffffffffffffffff16146103da576040517f08c379a00000000000000000000000000000000000000000000000000000000081526004016103d190611085565b60405180910390fd5b60008054906101000a900473ffffffffffffffffffffffffffffffffffffffff1673ffffffffffffffffffffffffffffffffffffffff166108fc479081150290604051600060405180830381858888f19350505050158015610440573d6000803e3d6000fd5b50565b6060600260008373ffffffffffffffffffffffffffffffffffffffff1673ffffffffffffffffffffffffffffffffffffffff168152602001908152602001600020805480602002602001604051908101604052809291908181526020016000905b828210156105d257838290600052602060002090600402016040518060800160405290816000820160009054906101000a900473ffffffffffffffffffffffffffffffffffffffff1673ffffffffffffffffffffffffffffffffffffffff1673ffffffffffffffffffffffffffffffffffffffff16815260200160018201805461052d90611008565b80601f016020809104026020016040519081016040528092919081815260200182805461055990611008565b80156105a65780601f1061057b576101008083540402835291602001916105a6565b820191906000526020600020905b81548152906001019060200180831161058957829003601f168201915b5050505050815260200160028201548152602001600382015481525050815260200190600101906104a4565b505050509050919050565b600260205281600052604060002081815481106105f957600080fd5b9060005260206000209060040201600091509150508060000160009054906101000a900473ffffffffffffffffffffffffffffffffffffffff169080600101805461064390611008565b80601f016020809104026020016040519081016040528092919081815260200182805461066f90611008565b80156106bc5780601f10610691576101008083540402835291602001916106bc565b820191906000526020600020905b81548152906001019060200180831161069f57829003601f168201915b5050505050908060020154908060030154905084565b6000600180549050905090565b60008054906101000a900473ffffffffffffffffffffffffffffffffffffffff1681565b6001818154811061071357600080fd5b90600052602060002090600402016000915090508060000160009054906101000a900473ffffffffffffffffffffffffffffffffffffffff169080600101805461075c90611008565b80601f016020809104026020016040519081016040528092919081815260200182805461078890611008565b80156107d55780601f106107aa576101008083540402835291602001916107d5565b820191906000526020600020905b8154815290600101906020018083116107b857829003601f168201915b5050505050908060020154908060030154905084565b6000341161082e576040517f08c379a0000000000000000000000000000000000000000000000000000000008152600401610825906110f1565b60405180910390fd5b600060405180608001604052803373ffffffffffffffffffffffffffffffffffffffff168152602001838152602001428152602001348152509050600181908060018154018082558091505060019003906000526020600020906004020160009091909190915060008201518160000160006101000a81548173ffffffffffffffffffffffffffffffffffffffff021916908373ffffffffffffffffffffffffffffffffffffffff16021790555060208201518160010190816108f191906112bd565b5060408201518160020155606082015181600301555050600260003373ffffffffffffffffffffffffffffffffffffffff1673ffffffffffffffffffffffffffffffffffffffff16815260200190815260200160002081908060018154018082558091505060019003906000526020600020906004020160009091909190915060008201518160000160006101000a81548173ffffffffffffffffffffffffffffffffffffffff021916908373ffffffffffffffffffffffffffffffffffffffff16021790555060208201518160010190816109cd91906112bd565b50604082015181600201556060820151816003015550503373ffffffffffffffffffffffffffffffffffffffff167f09ee48280b229b6d69b3432f9e7b41158021d466d08626b8e2cfd35934f45b8c348442604051610a2e9392919061138f565b60405180910390a25050565b600081519050919050565b600082825260208201905092915050565b6000819050602082019050919050565b600073ffffffffffffffffffffffffffffffffffffffff82169050919050565b6000610a9182610a66565b9050919050565b610aa181610a86565b82525050565b600081519050919050565b600082825260208201905092915050565b60005b83811015610ae1578082015181840152602081019050610ac6565b60008484015250505050565b6000601f19601f8301169050919050565b6000610b0982610aa7565b610b138185610ab2565b9350610b23818560208601610ac3565b610b2c81610aed565b840191505092915050565b6000819050919050565b610b4a81610b37565b82525050565b6000608083016000830151610b686000860182610a98565b5060208301518482036020860152610b808282610afe565b9150506040830151610b956040860182610b41565b506060830151610ba86060860182610b41565b508091505092915050565b6000610bbf8383610b50565b905092915050565b6000602082019050919050565b6000610bdf82610a3a565b610be98185610a45565b935083602082028501610bfb85610a56565b8060005b85811015610c375784840389528151610c188582610bb3565b9450610c2383610bc7565b925060208a01995050600181019050610bff565b50829750879550505050505092915050565b60006020820190508181036000830152610c638184610bd4565b905092915050565b6000604051905090565b600080fd5b600080fd5b610c8881610a86565b8114610c9357600080fd5b50565b600081359050610ca581610c7f565b92915050565b600060208284031215610cc157610cc0610c75565b5b6000610ccf84828501610c96565b91505092915050565b610ce181610b37565b8114610cec57600080fd5b50565b600081359050610cfe81610cd8565b92915050565b60008060408385031215610d1b57610d1a610c75565b5b6000610d2985828601610c96565b9250506020610d3a85828601610cef565b9150509250929050565b610d4d81610a86565b82525050565b600082825260208201905092915050565b6000610d6f82610aa7565b610d798185610d53565b9350610d89818560208601610ac3565b610d9281610aed565b840191505092915050565b610da681610b37565b82525050565b6000608082019050610dc16000830187610d44565b8181036020830152610dd38186610d64565b9050610de26040830185610d9d565b610def6060830184610d9d565b95945050505050565b6000602082019050610e0d6000830184610d9d565b92915050565b6000602082019050610e286000830184610d44565b92915050565b600060208284031215610e4457610e43610c75565b5b6000610e5284828501610cef565b91505092915050565b600080fd5b600080fd5b7f4e487b7100000000000000000000000000000000000000000000000000000000600052604160045260246000fd5b610e9d82610aed565b810181811067ffffffffffffffff82111715610ebc57610ebb610e65565b5b80604052505050565b6000610ecf610c6b565b9050610edb8282610e94565b919050565b600067ffffffffffffffff821115610efb57610efa610e65565b5b610f0482610aed565b9050602081019050919050565b82818337600083830152505050565b6000610f33610f2e84610ee0565b610ec5565b905082815260208101848484011115610f4f57610f4e610e60565b5b610f5a848285610f11565b509392505050565b600082601f830112610f7757610f76610e5b565b5b8135610f87848260208601610f20565b91505092915050565b600060208284031215610fa657610fa5610c75565b5b600082013567ffffffffffffffff811115610fc457610fc3610c7a565b5b610fd084828501610f62565b91505092915050565b7f4e487b7100000000000000000000000000000000000000000000000000000000600052602260045260246000fd5b6000600282049050600182168061102057607f821691505b60208210810361103357611032610fd9565b5b50919050565b7f536f6c6f20656c206f776e657220707565646520726574697261720000000000600082015250565b600061106f601b83610d53565b915061107a82611039565b602082019050919050565b6000602082019050818103600083015261109e81611062565b9050919050565b7f456c206d6f6e746f206465626520736572206d61796f72207175652030000000600082015250565b60006110db601d83610d53565b91506110e6826110a5565b602082019050919050565b6000602082019050818103600083015261110a816110ce565b9050919050565b60008190508160005260206000209050919050565b60006020601f8301049050919050565b600082821b905092915050565b6000600883026111737fffffffffffffffffffffffffffffffffffffffffffffffffffffffffffffffff82611136565b61117d8683611136565b95508019841693508086168417925050509392505050565b6000819050919050565b60006111ba6111b56111b084610b37565b611195565b610b37565b9050919050565b6000819050919050565b6111d48361119f565b6111e86111e0826111c1565b848454611143565b825550505050565b600090565b6111fd6111f0565b6112088184846111cb565b505050565b5b8181101561122c576112216000826111f5565b60018101905061120e565b5050565b601f8211156112715761124281611111565b61124b84611126565b8101602085101561125a578190505b61126e61126685611126565b83018261120d565b50505b505050565b600082821c905092915050565b600061129460001984600802611276565b1980831691505092915050565b60006112ad8383611283565b9150826002028217905092915050565b6112c682610aa7565b67ffffffffffffffff8111156112df576112de610e65565b5b6112e98254611008565b6112f4828285611230565b600060209050601f8311600181146113275760008415611315578287015190505b61131f85826112a1565b865550611387565b601f19841661133586611111565b60005b8281101561135d57848901518255600182019150602085019450602081019050611338565b8683101561137a5784890151611376601f891682611283565b8355505b6001600288020188555050505b505050505050565b60006060820190506113a46000830186610d9d565b81810360208301526113b68185610d64565b90506113c56040830184610d9d565b94935050505056fea2646970667358221220a64d5e58a337b89c2d6196ca73285b6bfa53d3f2cf25bf3fe3ddcd29977e83d164736f6c634300081c0033",
  "linkReferences": {},
  "deployedLinkReferences": {}
}